:100000000C9432000C944F000C944F000C944F0051
:100010000C944F000C944F000C944F000C944F0024
:100020000C944F000C944F000C944F000C944F0014
:100030000C944F000C944F000C944F000C944F0004
:100040000C944F000C944F000C944F000C944F00F4
:100050000C944F0085008A008F00940099009E0048
:10006000A300A80011241FBECFE5D8E0DEBFCDBF9E
:1000700010E0A0E6B0E0E4E6F6E002C005900D92E4
:10008000AA36B107D9F720E0AAE6B0E001C01D9278
:10009000AB36B207E1F70E9414010C9430030C94C4
:1000A000000086E690E00E94EE0084E690E00E9468
:1000B000EE0082E690E00E94EE0080E690E00E9472
:1000C000EE0088E690E00E94AD00089588E690E09A
:1000D0000E94C70081110CC080916A008F5F8093DD
:1000E0006A0080916A00893019F481E080936A0087
:1000F000E0916A008E2F90E0FC013197E830F10525
:1001000058F5E65DFF4F0C942A0386E690E00E94C6
:100110000801089584E690E00E940801089582E6AF
:1001200090E00E940801089580E690E00E94080196
:10013000089586E690E00E940E01089584E690E01E
:100140000E940E01089582E690E00E940E0108953B
:1001500080E690E00E940E010895CF93DF93EC01BA
:1001600062E088810E9419018981813029F461E06F
:1001700088810E94450208C0811105C060E0888125
:100180000E94450201C080E0DF91CF910895CF9396
:10019000DF93EC018981882371F08130B9F4888183
:1001A0000E94EA02811114C088810E94EA02882319
:1001B000D9F380E010C088810E94EA02813051F4B6
:1001C00088810E94EA028111FBCF05C081E003C053
:1001D00081E001C081E0DF91CF910895CF93DF935B
:1001E000EC0160E088810E9419018981811105C0BC
:1001F00061E088810E94450208C0813029F460E0F6
:1002000088810E94450201C080E0DF91CF9108956E
:1002100061E0FC0180810E944502089560E0FC01DC
:1002200080810E94450208950E9451000E9466004C
:10023000FDCF613009F464C020F0623009F4BFC022
:100240001CC18830A0F44AB3877021E030E0B901C6
:1002500002C0660F771F8A95E2F7CB01942F982B87
:100260009ABB9BB3809589238BBB81E0089598EF5F
:10027000980F9830A0F447B3877021E030E0B901BF
:1002800002C0660F771F8A95E2F7CB01942F982B57
:1002900097BB98B38095892388BB81E0089590EF40
:1002A000980F9830A0F444B3877021E030E0B90192
:1002B00002C0660F771F8A95E2F7CB01942F982B27
:1002C00094BB95B38095892385BB81E0089598EE12
:1002D000980F983008F0D3C041B3877021E030E028
:1002E000B90102C0660F771F8A95E2F7CB01942F00
:1002F000982B91BB92B38095892382BB81E00895AE
:100300008830A0F44AB3877021E030E0B90102C020
:10031000660F771F8A95E2F7CB018095942F98237B
:100320009ABB9BB389238BBB81E0089598EF980F0C
:100330009830A0F447B3877021E030E0B90102C0E3
:10034000660F771F8A95E2F7CB018095942F98234B
:1003500097BB98B3892388BB81E0089590EF980FED
:100360009830A0F444B3877021E030E0B90102C0B6
:10037000660F771F8A95E2F7CB018095942F98231B
:1003800094BB95B3892385BB81E0089598EE980FBF
:10039000983008F076C041B3877021E030E0B901B1
:1003A00002C0660F771F8A95E2F7CB018095942FE4
:1003B000982391BB92B3892382BB81E00895883052
:1003C000A0F44AB3877021E030E0B90102C0660FA3
:1003D000771F8A95E2F7CB01962F909594239ABBCD
:1003E0009BB3892B8BBB81E0089598EF980F9830D1
:1003F000A0F447B3877021E030E0B90102C0660F76
:10040000771F8A95E2F7CB01962F9095942397BB9F
:1004100098B3892B88BB81E0089590EF980F9830AE
:10042000A0F444B3877021E030E0B90102C0660F48
:10043000771F8A95E2F7CB01962F9095942394BB72
:1004400095B3892B85BB81E0089598EE980F98307D
:10045000D0F441B3877021E030E0B90102C0660FEB
:10046000771F8A95E2F7CB01962F9095942391BB45
:1004700092B3892B82BB81E0089580E0089580E0EB
:10048000089580E0089580E00895662309F44EC041
:10049000613009F099C0883078F44BB3877021E05F
:1004A00030E0B90102C0660F771F8A95E2F7CB01F1
:1004B000842B8BBB81E0089598EF980F983078F4E7
:1004C00048B3877021E030E0B90102C0660F771FA2
:1004D0008A95E2F7CB01842B88BB81E0089590EFE9
:1004E000980F983078F445B3877021E030E0B90177
:1004F00002C0660F771F8A95E2F7CB01842B85BB7C
:1005000081E0089598EE980F983008F05FC042B3EC
:10051000877021E030E0B90102C0660F771F8A952D
:10052000E2F7CB01842B82BB81E00895883080F410
:100530004BB3877021E030E0B90102C0660F771F2E
:100540008A95E2F7CB01809584238BBB81E00895E7
:1005500098EF980F983080F448B3877021E030E02E
:10056000B90102C0660F771F8A95E2F7CB0180952B
:10057000842388BB81E0089590EF980F983080F431
:1005800045B3877021E030E0B90102C0660F771FE4
:100590008A95E2F7CB018095842385BB81E008959D
:1005A00098EE980F9830A0F442B3877021E030E0C5
:1005B000B90102C0660F771F8A95E2F7CB018095DB
:1005C000842382BB81E0089580E0089580E008954F
:1005D00080E00895883060F429B330E08770A90185
:1005E00002C0559547958A95E2F7CA018170089532
:1005F00098EF980F983060F426B330E08770A90127
:1006000002C0559547958A95E2F7CA018170089511
:1006100090EF980F983060F423B330E08770A90111
:1006200002C0559547958A95E2F7CA0181700895F1
:1006300098EE980F983060F420B330E08770A901ED
:1006400002C0559547958A95E2F7CA0181700895D1
:1006500080E00895EE0FFF1F0590F491E02D0994BE
:04066000F894FFCF3C
:0A0664000F010E010D010C0114013D
:00000001FF
